:10000000C0460120E1490000FBCD0100B5490000D8
:10001000B5490000B5490000B549000000000000E6
:10002000000000000000000000000000D14A0000B5
:10003000B5490000000000006D4A0000B54900000D
:10004000A54C0000CD2F0100A54C0000A54C0000E0
:10005000A54C0000A54C0000A54C0000A54C0000DC
:10006000A54C0000A54C0000A54C0000A54C0000CC
:10007000A54C0000A54C0000A54C0000A54C0000BC
:10008000A54C0000A54C0000A54C0000A54C0000AC
:10009000A54C0000A54C0000A54C0000A54C00009C
:1000A000A54C0000A54C0000A54C0000A54C00008C
:1000B000A54C0000A54C0000A54C0000A54C00007C
:1000C000A54C0000A54C0000A54C0000A54C00006C
:1000D000A54C0000A54C0000A54C0000A54C00005C
:1000E000A54C0000A54C0000A54C0000A54C00004C
:1000F000A54C0000A54C0000A54C0000A54C00003C
:1001000053B94AB9002908BF00281CBF4FF0FF317E
:100110004FF0FF3000F00CB8ADF1080C6DE904CEE3
:1001200000F008F8DDF804E0DDE9022304B07047D0
:10013000704700BF2DE9F04786468C460846089E6A
:10014000154674461946002B40F0C2808542B2FA2B
:1001500082F245D94AB1C2F1200300FA02FC2EFA1C
:1001600003F3954043EA0C0C94404FEA154EA8B2B5
:10017000BCFBFEF8230C0EFB18CC08FB00F943EA8D
:100180000C43994528D9EB1808F1FF3704D299455B
:1001900002D9A8F102072B44A3EB0903A4B2B3FBD5
:1001A000FEFC0EFB1C330CFB00F044EA0344A042AF
:1001B00014D92C190CF1FF3304D2A04202D9ACF1AE
:1001C00002032C44241A43EA07401EB1D440002302
:1001D00034607360BDE8F0874746DDE76346F1E7CA
:1001E00092BB431B01214FEA154EAFB2B3FBFEFC9D
:1001F000200C0EFB1C330CFB07F840EA0343984528
:1002000062D9EB180CF1FF3004D2984502D9ACF159
:1002100002002B44A3EB0803A4B2B3FBFEFC0EFBCD
:100220001C330CFB07F744EA0344A7424ED92C19B0
:100230000CF1FF3304D2A74202D9ACF102032C44E3
:10024000E41B43EA0040C0E7C2F1200320FA03F1B7
:10025000954090402EFA03F303434FEA154EAFB298
:10026000B1FBFEFC0EFB1C10190C0CFB07F841EA5D
:100270000041884504FA02F422D969180CF1FF30D4
:1002800004D2884502D9ACF102002944A1EB08014F
:100290009BB2B1FBFEFC0EFB1C110CFB07F743EA03
:1002A00001439F420ED9EB180CF1FF3104D29F425B
:1002B00002D9ACF102012B44DB1B41EA004192E779
:1002C0006046E3E76146F7E76046A3E76346B7E7C2
:1002D000834206D916B9002108467BE7C6E900E04B
:1002E000F9E7B3FA83F78FB9834201D3724508D88F
:1002F000BEEB020460EB030301209C461EB9002103
:1003000068E73846FAE7C6E9004CF8E7C7F1200C81
:10031000BB4022FA0CF41C432EFA0CF120FA0CF329
:10032000B84001434FEA14490EFA07F5B3FBF9F858
:100330001FFA84FE09FB18300B0C08FB0EFA43EA87
:1003400000439A4502FA07F240D9E31808F1FF305A
:1003500004D29A4502D9A8F102002344A3EB0A0370
:1003600089B2B3FBF9F809FB183308FB0EFE41EA2A
:1003700003418E452CD9611808F1FF3304D28E4514
:1003800002D9A8F10203214443EA0040A0FB0298ED
:10039000A1EB0E014145CE46434602D306D14D4561
:1003A00004D2B9EB020E68EB04030138002EA6D08C
:1003B000B5EB0E0261EB030101FA0CFC22FA07F324
:1003C0004CEA0303F940C6E9003198E74046C5E727
:1003D0004346D9E7034613F8012B002AFBD1181A2C
:1003E00001387047000000002DE9F843D0E90C35D2
:1003F000D0F82C805C193034A0450F46164619D829
:100400001D4DA3FB05011AA3D3E90023FFF778FED6
:100410000346A4EB0800A0FB050123F07F4414A3CE
:10042000D3E90023FFF76CFE20F07F403C60306092
:10043000BDE8F883DFF840900DA3D3E90023A8FBC3
:100440000901FFF75DFE044605F1300008A3D3E97A
:100450000023A0FB0901FFF753FE24F07F4420F0A6
:100460007F403C603060BDE8F88300BFAFF30080A0
:100470008D49FD1A0700000000CA9A3B00000000E9
:10048000002800F062812DE9F04FB74C94F86A2003
:1004900012F001058DB040F0AB8194F82500FF23E8
:1004A00000F0030084F8263012F02AF994F86A006C
:1004B000420727D494F8292094F8353004EB8202BF
:1004C00004EB8303D66AD3F8388086B1A648314658
:1004D0000AF0D4FB33785B0605D5062104F048FE0C
:1004E000002800F08781A04841460AF0C7FB337816
:1004F00013F00E0F40F0BA80236A93B10C200DB0B8
:10050000BDE8F08F2A4604F16B01C0F3C00012F081
:1005100091FAFF2884F82600CCD0284612F036F94C
:10052000C8E707F003F98146002800F0758107F05D
:1005300009F98246002800F06C810AF0FBFF0546AD
:10054000002800F06B81D0F888004FF6FF732B85F0
:1005500005F11C0B002800F0538105F1780105F12D
:100560007C0204F011FEB5F87630804A23F4EF6384
:1005700023F0070343F4887343F00103A5F87630B2
:100580001346D2F80120C5F89B21C5F8A12113F824
:10059000012B9B88A5F89F31A5F8A53195F89A31D4
:1005A00002F0010262F3000362F3410385F89A311D
:1005B00095F8393003F03F0363F07F0385F8393055
:1005C00095F88E3023F0070385F88E3095F83C308F
:1005D00023F0070385F83C307F23002785F8D230CD
:1005E0004FF4C023C5F888312846C5E91277C5F80D
:1005F0008870A5F88C706F86C5F82E7085F83B70F2
:100600002F65A5F88E71A5F884710DF087FE85F829
:100610005071C5F854910BF013FB95F8943160F3C9
:10062000020385F894310BF011FB95F8943160F3D7
:10063000C50385F8943195F8803167F3410385F857
:100640008031012128460BF0ABFF05F1D4000DF0FD
:10065000F1FBC4E9189AC4F820B0C5E905772F70FA
:10066000ED6113F059FA002840F0C68094F8243068
:100670000121C3F342030DF12B008DF82B3004F060
:100680001FFF0246002862D098F8011030460AF099
:10069000BDF831233649A360364BB4F86870A0FB2F
:1006A00001010025C01841F107012DA3D3E9002362
:1006B000C4E9055525706560E560FFF721FD2061FF
:1006C00006F02AFB00F109083FB9357805F00F055F
:1006D000A5F10105B5FA85F56D0994F824002369A3
:1006E00065F3000010F0010584F824004CD0224A84
:1006F0000992002010600225204A214F04930BAE7E
:10070000019305920321CDE902000694434600902F
:10071000089607972A460B9506F09CF9314607F094
:10072000A3F8A0B9174905914AF2D8330093CDE94F
:100730000300CDE90100079708960694434601227D
:1007400003210B9506F052F944E009F0AFBF236A8C
:10075000002B3FF4D3AE09F069FFCFE6AFF3008082
:100760008D49FD1A070000007C390020330002008B
:1007700000CA9A3B8C49FD1A7039002089A80000F4
:100780009D6E0000ADA300002B4A2C48049303F299
:1007900047130694029591211360A7FB000301FB08
:1007A0000731274B0793274B05934FF6FF730992A9
:1007B000022703930BAE1EA3D3E900230B970896E1
:1007C000FFF79EFC4346CDE900503A4628460321F8
:1007D00006F040F9314607F047F80028B7D194F801
:1007E0006A3043F0010384F86A300AF097FC60B184
:1007F000002084E6122082E609F018FF03207EE63E
:1008000005F18000C5F88800A7E6012011F05AFF25
:10081000EEE7484606F090FF072070E6504606F0E7
:1008200097FF484606F088FFF6E700BFAFF3008069
:100830008D49FD1A0700000070390020002AE78466
:100840009D6E000089A8000070B590F824308AB031
:10085000C3F342030D46044601210DF12300164661
:100860008DF8233004F02CFE71780246284609F0FA
:10087000CDFF1F491F4AA0FB0131981841F1070124
:1008800019A3D3E90023FFF73BFC236998420546EF
:1008900021D21B1A00220192174A0293174BA21A67
:1008A000A3FB02320221920900230A4409AE0991F6
:1008B00013490591CDE903330321D2B20696009383
:1008C000184606F027F9314606F0CEFF38B9256103
:1008D00000200AB070BDFBD9C21A0023DBE70C2050
:1008E0000AB070BDAFF300808D49FD1A070000000B
:1008F00000CA9A3B8C49FD1A7C3900208988888877
:100900009D6E00000000000038B5194C9DF810E005
:1009100094F848C01CF0010523D163F3420C400158
:1009200094F83230A1874FEACE0E0EF0180E00F088
:10093000200040EA0E0023F0380303430D4884F8FA
:1009400032309121A2FB000384F848C001FB023140
:1009500005A3D3E90023FFF7D3FBC4E91000284621
:1009600038BD0C25284638BD8D49FD1A070000000A
:10097000F01D0020002AE78410B504469DF8080009
:1009800022844FEA411CC000A17D00F018000CF049
:10099000200C4CEA000C0C4821F038014CEA010C08
:1009A000A3FB0002912184F816C001FB032104A3DC
:1009B000D3E90023FFF7A4FB606210BDAFF3008012
:1009C0008D49FD1A07000000002AE784000000009E
:1009D0002DE9F047044600F1350190F8480094F8FD
:1009E00032305B4DDFF86C81C0F3400060F386135A
:1009F0008CB084F8323006F0E1F994F83220A38FFD
:100A00005548E46102F07902002784F832209121F0
:100A1000A3FB0002C4E90577277001FB03214AA369
:100A2000D3E90023FFF76CFB651B626C4B4B6760DF
:100A3000AD08A3FB053502F10903984298BF3A4679
:100A4000C5F3470522644FF031028CBF19460146B9
:100A5000A26005EB4502E760216148F822100646D6
:100A600006F05AF9236A00F109074FEA450A002BFC
:100A70004AD00DF12C09AA4408EB8A030993CDF85A
:100A800020900694A38F34484FF00008A3FB000287
:100A9000CDF80C80912101FB032123690493304B95
:100AA0000793304B05934FF0020A27A3D3E90023A5
:100AB000CDF82CA0FFF724FB104619464FF47A72AC
:100AC0000023FFF71DFB0435EDB2CDE901600321E2
:100AD0003B462A46CDF80080404605F0BBFF49461C
:100AE00006F0C2FE60B994F8483043F0010384F880
:100AF00048300AF099F808B300200CB0BDE8F08740
:100B00000C200CB0BDE8F0870DF12C09CDE90A33BB
:100B100021694B460AAA032001F08AF90028AAD1CC
:100B20000B99114808A3D3E90023A1FB0001FFF7AB
:100B3000E7FA0A9B20F07F471F449CE7504611F0DC
:100B4000C1FDD9E7AFF300808D49FD1A0700000011
:100B5000F01D00200C3A0020002AE784BD86F21A1E
:100B60009D6E0000B1AE000000CA9A3B000000007C
:100B70002DE9F04F05468BB08B46012002219A46A5
:100B8000144615F0EDFF002202218146012004F0F9
:100B90004BFB3B494FF4D472284604F0D5FA461D6E
:100BA000F6B2384B009532460121002005F0CAFF0D
:100BB00010F0FD0F0BD034493448354A40F62F036E
:100BC0001CF000F8324840F62F011BF0F1FB314BCE
:100BD000A4FB0348204628A3D3E900234146FFF79E
:100BE0008FFA2D4B20F07F47A7FB03310722E01A35
:100BF00002FB071168EB01014FF47A720023FFF743
:100C00007FFACDE90170CDF800B008950695296905
:100C100095F9394021480491214931EA240128BF3E
:100C2000014605911F4C07944FF6FE710391534600
:100C300032460121002005F0D9FE10F0FD0F0BD047
:100C400011491248124A40F644031BF0BBFF1048FA
:100C500040F644011BF0ACFBB9F1000F02D10BB020
:100C6000BDE8F08F0122022110460BB0BDE8F04F25
:100C700004F0DABAAFF300808D49FD1A07000000D6
:100C8000401E0020DDB4000098EE010058E701008E
:100C9000D4ED010000CA9A3B8D49FD1A6517010089
:100CA0000D19010085B400002DE9F043C469228DBF
:100CB0004FF6FF739A428DB000F0878005462046BC
:100CC0000DF020FE95F82830012B00F00E81022B4C
:100CD00000F00181002B00F0E08094F85071002FAB
:100CE00040F0FC80E68DB4F83080002E70D1AA8CE4
:100CF00008F101060023CDE90A33B6B2002A6FD00D
:100D000094F93930002BC0F247810023A4F88A31CE
:100D100095F82630D90740F1EE800023A4F88E31F3
:100D20000DF12702314620460DF034FB743000F0FF
:100D30004581B4F888312BB1B34240F20C819B1B42
:100D4000A4F88831B4F884312BB1B34240F2FA8070
:100D50009B1BA4F88431258E17B9A84500F0E980C3
:100D60000135ADB294F8D13013F0010659D1DDE967
:100D70000A130A46002B40F0EC80002900F0DB80CB
:100D80001E461846228DE4690694CDE903570532C4
:100D9000A74D0290CDE90016D2B2012100200595A1
:100DA00005F0B8FE10F0FD0F0FD006F087FD84426D
:100DB0000BD0A049A048A14A40F215531BF002FFF6
:100DC0009E4840F215511BF0F3FA0DB0BDE8F083D8
:100DD000AA8C46440023CDE90A33B6B2002A8FD14B
:100DE00095F82630DA0798D4B4F88A31002B00F051
:100DF0008280B34240F2FA809B1BA4F88A31B4F897
:100E00008E31002B8CD09E4280F0DE809B1B9BB2EB
:100E10000022062BA4F88E31228600F2AC80012736
:100E20007EE794F939206FF30003002A84F8D1306B
:100E300077DB94F87600C0F3C00100F0070012F0F1
:100E4000D9FCB4F86E20B4F86C30134403F2D51317
:100E500003447B4A7B480721E3FB0021104672A331
:100E6000D3E90023FFF74CF9DDE90A1320F07F42B4
:100E700020692261904235BF161A801A0020002690
:100E80000A46002B7FF47EAF56EA010C7FF47AAF5E
:100E9000002850D019461E4674E794F88E3003F0AF
:100EA0001803182B7FF419AFA18DB4F886218B1D80
:100EB0009A42C4BF931F5B1AB4F88211CCBF9BB295
:100EC0001346994200F08C80A4F88231A4F8843152
:100ED000A4F8882101E73D2784F85071394620465F
:100EE0000DB0BDE8F0430AF0EFBF0023A4F888314D
:100EF000A4F88431F1E6B4F88E31002B83D1628DF1
:100F0000B4F88C3140F2E24101FB02F242F210717E
:100F100001FB0323013BB3FBF2F39BB2A4F88E3138
:100F20006FE794F87700012100F0070012F064FCED
:100F300087E73D4616E7002D4BD000261146304688
:100F400033461FE70023A4F8843120460DF0C0FA91
:100F500001E7304616E706F041FC014600283BD089
:100F60000023A4F88831238DC3801B2303710068FC
:100F700006F0FEFBE6E694F939309342BFF6D0AEB8
:100F8000B8F1000F7FF44BAFD4F878315A08DB0783
:100F900043D4C4F87821C3E628460AAA0BA904F171
:100FA000D409FFF721FA48460CF086FF18B34846EB
:100FB0000CF082FF18B300232386A6E69DF82710C5
:100FC00020460AF081FF00E7082120460AF07CFF56
:100FD000FBE6002FB1D1F8E60123A4F88831B1E691
:100FE000B4F8881100297FF478AE6FE73E212046DF
:100FF0000AF06AFFE9E6FF200AF0FCFED7E70246A6
:10100000D4E91E0104F0D8F80028D4D194F83C307B
:10101000580744BFA38D238677E642F00042C4F808
:101020007821FCE6AFF300808D49FD1A070000002F
:1010300041B40000E4EE010058E70100D4ED0100E6
:101040008C49FD1A00CA9A3B2DE9F04F87B0CDE9D3
:101050000432BDF8442003780292BDF84820BDF860
:101060004080BDF84C50468EB0F82E90B0F814B1C8
:10107000019104460392002B00F0CB80013EB6B2F2
:10108000A368D4F80C71721B92B2002B009209DA9B
:10109000E168626823F0004391422CBF7F18BF18BB
:1010A000A360FF1A009A638D13FB02F39BB2B3FB9C
:1010B000F8F218FB02F080B283421FFA82FA80F045
:1010C0009780C01A40F2E2425D4902FB00F0A0FBAB
:1010D000010159A3D3E90023FFF712F820F07F4064
:1010E0000744D94494F839304D44AD1B554440F27F
:1010F000E246DB09E58506FB08F500F08E80226CF0
:101100000099A36CDFF838B102FB1133A36412F02D
:101110006DFD814694F87401C0F3420012F068FD41
:10112000059B814406FB03F305FB09F9236509F5DB
:101130007429444B09F23F29A3FB09394FEA99432B
:1011400003FB0AF02364A5EB0309A36C6A080344BC
:10115000963A934228BF1346C4E911230023C4F8EA
:101160007C31A0FB0B0134A3D3E90023FEF7C8FFB9
:10117000049B3F1A3448A0FB0330800A06FB00F0B2
:101180002DA3D3E90023A0FB0B01FEF7B9FF20F04C
:101190007F46029BA385039BA4F88C3129462046F9
:1011A000A4F82A800DF030F9284BA18D2B44881D1E
:1011B000B3FBF5F39AB29042A4F8862102D2521AF8
:1011C000063A92B2019BA4F8822113B10023A4F83D
:1011D0008E313B464A4631462046FFF7C9FC94F81B
:1011E000803143F0010384F8803107B0BDE8F08F0F
:1011F00008FB1231124840F2E24389B203FB01F1CD
:10120000A1FB00010CA3D3E90023FEF779FF3F1AED
:1012100067E74E445E44B6B232E7049B0848A3FB3E
:10122000000105A3D3E90023FEF76AFF20F07F4603
:10123000A9460136ADE700BF8D49FD1A0700000041
:1012400000CA9A3B83DE1B435917B7D17FC3C9013C
:101250002DE9F04F04460B68077F1668D3F800A00D
:10126000638CD0F81E0095B015464A7CADF84C3022
:10127000FF2AC7F3801389460C9212908DF83F30F5
:1012800073D198461A4612AB93E803000DF1400B58
:101290001090ADF84410FF090AF17101D4F800C0B4
:1012A0000A915B463846CDF82CC00AF0D5FC0A9965
:1012B000002842D196F89A310A9068F3410367F307
:1012C000000386F89A311098BBF80430C6F8A101E3
:1012D000A6F8A531DAF87130C6F89B318B88A6F8EC
:1012E0009F31E38D94F83010A9722B81D4F82A3005
:1012F0006B60D4F83A30AB6105F1180094F83E30D9
:101300000371052104F0DCF86B7F00F03F0060F30F
:1013100005036B7794F83F30C3F30401A977A18EDE
:10132000E981012803F01F0389B206D91B3303F0BA
:101330001F030B2B01D80A9A59BB0022CAF81420AC
:1013400095F820300B9862F3000385F82030E568AB
:1013500001262146267106F001FA28682E712946D9
:1013600006F006FA15B0BDE8F08F0DF1400B1046FF
:101370000DF13F015A4610F0A9FE9DF83F80277FEE
:1013800008F102085FFA88F88DF83F8008F0010242
:1013900081E7D9F800305A60E38E2B82EB8940F266
:1013A000E24808FB03F71146638E0A9330460DF0BE
:1013B0003FF894F83F3096F874215B0963F34302D9
:1013C00086F8742112F012FC0D9096F87401C0F3A7
:1013D000420012F00DFC0D9B184407FB00F0B84BC7
:1013E00000F5742000F23F20A3FB00307B08800C46
:1013F000963B6862AB6294F8313008FB03F3AB6351
:10140000238FA6F88C31394630460CF0FDFFAD4BEA
:10141000AD4AC6F890213B44B3FBF7F39AB2A6F865
:101420008621298A881D824204DDC1F57F41FA3177
:101430000A4492B2A6F882216B68C6F87831234636
:1014400013F81C2FC2F34018DA0700F102814FF4A1
:101450008073A3839AF8260011F002FC04F12B0399
:10146000002800F0EC80626AC4F82B20228D9A805C
:101470000C9BFF2B00F0E780BDF84C301298A4F8CD
:101480002930C4F82500BBF80430A4F823301098A4
:101490009DF83F30C4F81F00A377EB8963862B8A41
:1014A000A386B6F88C31E38696F87431C3F3420311
:1014B00084F8383030460AF049F8A881E0802146A7
:1014C0000B98D9F8044006F049F9AB89E3801C2356
:1014D000D4F800B02371B8F1000F40F0CD8084F84B
:1014E0001C802146584606F043F995F85B00B5F894
:1014F0005080B5F85240012100F0070012F07CF94D
:10150000444404F2D514DFF8C4810444834670488F
:101510000721E4FB080131230024B360746066A353
:10152000D3E90023F460FEF7EBFD20F07F4030614B
:101530006D6A0A9A7D1BD9F80C7040F2E24303FBF6
:10154000027702212246012003F06EFE504609F088
:1015500051FB07F2B2470246A7EB0B07A7FB0801B6
:10156000174655A3D3E90023FEF7CAFDCDF804A022
:10157000D9F808305749009120F07F48BA1C3A3B0F
:10158000D2B220464344012105F01EFB01287ED043
:101590009AF82430DB0767D4304609F0D7FF4B4B6D
:1015A000A5FB035A044644A3D3E900232846514629
:1015B000FEF7A6FDD9F80830474A0792A3F13A0989
:1015C000464B069620F07F47A7FB0331E81A444BB1
:1015D000059340F2D113089333694FF0000BCDE926
:1015E00003B34FF0070303FB07116AEB01014FF44C
:1015F0007A720023FEF784FD0534E4B2CDE9017070
:10160000CDF800804B4622460121584605F0EEF900
:1016100010F0FD0F0BD033493348344A4FF4E973CF
:101620001BF0D0FA31484FF4E9711AF0C1FE0122E3
:101630000221104603F0F8FD15B0BDE8F08FC4F8A4
:101640002B00988014E70022C4F82520A4F8292054
:1016500019E727492448254AF8231BF0B3FA234801
:10166000F8211AF0A5FEF2E60023012200931846A5
:10167000114605F067FA8FE76B7F43F040036B7705
:10168000281D10F01BFB4FF00108E88327E706F048
:1016900015F982453FF47CAF16491348134A40F2CE
:1016A00079231BF08FFA114840F279211AF080FE5D
:1016B0006EE700BFAFF300808D49FD1A0700000000
:1016C00083DE1B437FC3C901404B4C0000CA9A3BD9
:1016D0008C49FD1A29170100F91601008D49FD1AE0
:1016E0006517010098EE010058E7010084F301003E
:1016F00034EB0100E0F301002DE9F04F8BB01F4601
:10170000BDF858300693CDE90401BDF860309DF86E
:101710005490BDF85CB003930020164609F00CFD10
:10172000002800F0698109F001080446404605F0F0
:1017300035FB0290B8F1000F6ED1149B02993A4626
:1017400040460AF089FA002840F06781236A04F1D4
:101750001C020792002B66D0D4F820A0DAF80050C3
:1017600007F0010B9AF85A00C0F3C00100F007001F
:1017700012F040F8BAF85210BAF8502000F2D5131F
:101780000A441344D248D34A0721E3FB0021104600
:10179000CDA3D3E90023FEF7B3FC20F07F402861FE
:1017A000304610F0CFFF94F833306FF3410384F8E4
:1017B0003330FF2384F83430002E00F02181A9F16A
:1017C0000203012B40F22D8194F8481069F3420185
:1017D00084F8481094F833106BF30001DDE904231A
:1017E00084F83310149909686162149989882185F5
:1017F0000399218604F11C0000960021FFF7BCF834
:10180000606412F089F9002840F016812046FFF745
:10181000DFF80BB0BDE8F08F062103F0A9FC00282B
:101820008BD11220F5E705F081FF0790002800F02A
:10183000718109F07FFE0546002800F068812030A4
:1018400003F052FE05F11C0A002840F01E8103211E
:1018500005F1240011F086FE069BD5F888006B8503
:101860004FF6FF73A5F82CB02B85002800F01881E7
:1018700005F17C0205F1780103F086FCB5F87630BD
:1018800023F4EF6323F0070343F4887343F0010369
:10189000A5F8763095F88E304FF0000B23F0070353
:1018A000012185F88E30C5F888B0A5F88CB028469F
:1018B0000AF076FE7F23C5F82EB0A5F832B085F881
:1018C000D23005F1340010F0A3F995F8393060F307
:1018D0000503012185F839300DF1270011F042FE92
:1018E000039B9DF82720A5F88C317B4B85F83BB0F6
:1018F000A3FB0213DB0803EB4303A2EB830295F87F
:101900003930A98DA5F88EB103F03F0385F8393041
:1019100095F83C30A5F884B1053223F0030385F82F
:101920003A20069A85F83C3040F2E24B6B4B0BFBB9
:1019300002FB4FF4C0225B44C5F88821881DB3FB2D
:10194000FBF39AB28242A5F8862102DD063A521ACA
:1019500092B2A5F8822128460CF0E0FC59462846B0
:101960000CF052FD079BC5F85431002385F8503127
:101970000AF066F995F8942160F3020285F8942143
:101980000AF064F995F8942160F3C50285F8942172
:1019900095F88021002363F3410285F8802105F149
:1019A000D4000CF047FA95F89A21149907F0010B2E
:1019B0006BF3410285F89A213122AA600023149A20
:1019C0006B60EB601268C5F8A12195F89A218988AF
:1019D000A5F8A51169F30002029985F89A210A6811
:1019E000C5F89B218A88A5F89F21C4F820A0C5E9E5
:1019F00005332B70ED61B5E60C200BB0BDE8F08F20
:101A000011F0D4FA00283FF4DAAE14993846324681
:101A100011F010F884F83400D1E60B200BB0BDE8CB
:101A2000F08F002010F0B2FE94F8333043F0020340
:101A3000C14684F83330C7E6256AEB6E5BB12849AE
:101A40002848294A40F21D431BF0BCF8264840F2C2
:101A50001D411AF0ADFC05F1600105F15C0003F0D9
:101A600097FB064608B32F68EE66D7F85451002D51
:101A700040D0284605F060FE384609F061FD00239D
:101A8000032023620BB0BDE8F08F18491548164AB1
:101A9000C1231BF097F81448C1211AF089FCD6E63F
:101AA00005F18000C5F88800E2E60F4A10490D48AC
:101AB00040F21F431BF086F80B4840F21F411AF01A
:101AC00077FCD0E7AFF300808D49FD1A07000000D6
:101AD00000CA9A3B8C49FD1AABAAAAAA7FC3C901C6
:101AE000C8EC010058E7010010F40100B4E7010060
:101AF00024EE0100084A0949094840F226431BF038
:101B000061F8054840F226411AF052FCB1E7079807
:101B100005F012FE07207CE610F4010024EE01001F
:101B200058E70100000000002DE9F04F04468DB099
:101B300090F81C80238D406AADF82C30E307C8F381
:101B4000C0170E461546C8F340180A9000F10B81E5
:101B50000023A383B37C707C13F001031CBFD4F873
:101B60001E30C4F82B3004F12B0214BF638CC4F870
:101B70002B30FF28938004F1250904F11F0240F067
:101B8000E3800023BDF82C100A98C4F82530A9F88A
:101B90000430A777C4F81F0091803368D3F8009011
:101BA000EB8963862B8AA386B9F83030E38612F07E
:101BB0001BF884F838002F68384609F0C7FC00216C
:101BC000A881E08038460CF033FCD6F804A02068E9
:101BD000214605F0C3FDAB89AAF806301C23DAF8CC
:101BE00000408AF80430B8F1000F40F0C9808AF84C
:101BF0001C805146204605F0BBFDBB687A6895F80D
:101C00005A00B5F80E80F568654C934238BF13460C
:101C1000C0F3C00103F1090A00F0070040F2E243FB
:101C200003FB08F811F0E6FD002202212D1A012025
:101C300003F0FAFA484609F055FAA5FB044556A305
:101C4000D3E90023834629462046FEF759FACDF80A
:101C50000490B3685349009120F07F490BF10402CE
:101C6000A3EB0A03D2B24B440121002004F0ACFFE5
:101C700010F0FD0F0BD04C494C484D4A40F23D331B
:101C80001AF0A0FF4A4840F23D311AF091FB4FF0A4
:101C9000000B5B4603220121CDF800B0584604F04A
:101CA00051FF384609F052FCB36806463C48A3EBA6
:101CB0000A0AA8FB000138A3D3E90023FEF720FAA3
:101CC00019463C4B08933C4B069340F26D33079703
:101CD00009933B698046CDE904B3104600234FF4D5
:101CE0007A72FEF70DFA354B0722A9FB0331CDE9D5
:101CF000028002FB0911E01A65EB01014FF47A72D0
:101D00000023FEF7FDF90536F6B2CDE90090534603
:101D100032460121584604F085FE10F0FD0F0BD02D
:101D200021492248224A40F26E331AF04BFF2048E4
:101D300040F26E311AF03CFB0122022110460DB038
:101D4000BDE8F04F03F070BA04F11E0110F0BEF9C7
:101D5000A37FBDF82C200A98C4F825000233A3778E
:101D6000A9F8042019E716491048114A40F2BD238A
:101D70001AF028FF0E4840F2BD211AF019FBE7E6E1
:101D80006B7F43F040036B77281D0FF097FF4FF0F8
:101D90000108E8832BE700BF8D49FD1A070000000A
:101DA00000CA9A3BD918010098EE010058E70100DB
:101DB00010F40100DD1801000D1901008D49FD1A14
:101DC00034EB010000000000053838B5C3B2042B25
:101DD00024D880B20D4609F0C1FB0446F0B190F959
:101DE0003930002B1ADB90F87600C0F3C00100F008
:101DF000070011F0FFFC0C4A00F59D430B487533BA
:101E00000721E3FB0021104605A3D3E90023FEF7D9
:101E100077F920F07F402860204638BD002038BD8B
:101E20008D49FD1A070000008C49FD1A00CA9A3B33
:101E30002DE9F04F93B0FF240B930B1D0A93002361
:101E4000CDE90E33054616468DF837409B464FF0D8
:101E5000040A1F469946984610AB0693564B0593C5
:101E6000564B03930FAB01930EAB0020009302235C
:101E700010930490029033460DF13702294604F086
:101E8000E7FE022815D0109BCBB9FF2C25D0336874
:101E9000BB4222D0BAF1000F3FD00AF1FF3AFF2433
:101EA0005FFA8AFA8DF83740D6E72946002004F019
:101EB0001BFF109B022BF8D0109B002BE5D0404954
:101EC0004048414A4FF4F7731AF07CFE3E484FF405
:101ED000F7711AF06DFAFF2CD9D19DF83700FF2861
:101EE00028D011A9FFF770FF0028B5D0FF2C0E9F56
:101EF000119B0AD041463846099304F00FFF0A9B14
:101F000003EB09029042099B16D8B8469DF837406A
:101F10003768DDF83CB099469EE72C4929482A4AA3
:101F20004FF4FB731AF04EFE27484FF4FB711AF082
:101F30003FFAB2E7FF2C34D025480721A9FB000364
:101F400001FB09311AA3D3E90023FEF7D9F80446AF
:101F500000B140341F4AABF57423A3F510739342CC
:101F600016D81B480721A8FB000301FB083110A36A
:101F7000D3E90023FEF7C4F8174BA3FB0B2304EBB4
:101F800093440B9B044400201C6013B0BDE8F08F09
:101F90000BF1E87B0BF5D43B08F1FF380BF5A57B83
:101FA000DFE76FF0090013B0BDE8F08FAFF30080FA
:101FB00000CA9A3B00000000D51B0100D91B01009C
:101FC000A0F4010058E701005CF40100A8F401004E
:101FD0008D49FD1ABFBDF07F83DE1B43000000006A
:101FE0002DE9F043C668476873683D491A68D0F820
:101FF0000090A7F57423A3F510738B4283B080463D
:1020000007D907F1E87707F5D43709F1FF3907F564
:10201000A57773681169DD89CDF8049006F1100386
:1020200001AA0220FFF704FF00284ED10199A1EB7D
:1020300009031B0237D40846494604F06FFE0346E5
:1020400028480721A3FB000201FB032122A3D3E9B7
:102050000023FEF755F834690444002C346109DB91
:1020600040F2E24305FB03F3A3422FD2E41AA3425A
:10207000FCD33461D8F800301A48A3EB0903A3FB62
:102080000002072101FB032113A3D3E90023FEF77C
:1020900037F8154BA3FB0737A0EB9740204430617E
:1020A00003B0BDE8F083484604F038FE03460D480F
:1020B0000721A3FB000201FB032107A3D3E90023AF
:1020C000FEF71EF83469241AC7E73469002CD1D111
:1020D00003B0BDE8F08300BF00CA9A3B00000000D7
:1020E000BFBDF07F8D49FD1A83DE1B430000000059
:1020F000F0B5C468636883B00546002B62D113F065
:1021000085FE002013F0EEFE0021084613F098FE35
:1021100000222521082013F04DFF454B019301A813
:1021200013F030FF434940F25B6013F0EFFF237A76
:10213000C3F3420262F306132046237211F074FFC8
:1021400010F034FF58BB637A9B071FD127682E68B5
:10215000384611F0EDFA06446A6806F109010120DB
:1021600014F076FA14F050FB204608F04FFD811C65
:102170003246C9B2384611F0E9FA054668BB204636
:1021800011F074FA88B9002003B0F0BD012010F0FE
:102190008DFA4178821C007814F0FAF9D6E7607A5B
:1021A00010F0030018BF0120F1E723492348244A17
:1021B00040F22C431AF006FD214840F22C411AF05F
:1021C000F7F8E0E793F820309A0798D01D482146A9
:1021D00013F0DAFD13F052FFD5E7194A1A491748F0
:1021E00040F214431AF0EEFC184B0721A5FB030341
:1021F00001FB05310CA3D3E90023FDF781FF14494E
:10220000024614481AF0DEFC0D4840F214411AF060
:10221000CFF81148214613F0B7FD13F02FFF6FF0F0
:102220008B00B1E7AFF3008000CA9A3B00000000CA
:10223000D6BE898E55555500C4E8010058E7010007
:1022400054F80100D1380100D8E701008D49FD1A8A
:1022500004F90100D8F80100FD3B01000000000076
:102260002DE9F041C46894F91630002B8CB0C0F20F
:10227000FA80636805460E46002B40F0E980A37D96
:102280006FF30003A37513F0C1FD002013F02AFEC5
:102290000021084613F0D4FD00222521082013F068
:1022A00089FE012005F0BCFB0746002800F0C38032
:1022B00007F11C0013F0AEFE834B0B930BA813F039
:1022C00061FE824940F25B6013F020FFA07DC0F305
:1022D0004100253011F04CFA7D48214613F054FDA1
:1022E000A37D9B0603D46368002B00F0A180962099
:1022F00014F0A2F900231A461946184614F0CAF839
:1023000010F054FE002837D1A37D13F0180F57D1D9
:10231000D4F800802F68404611F00AFA07446A6832
:1023200007F10901002014F093F914F06DFA14F08C
:102330000BF9204608F0E4FE011DC9B240463A46BA
:1023400011F004FA8046002840F0948016B9636AC0
:10235000002B4BD163683BB15E4B01220221002070
:102360009D6002F095FFA0BB204611F07FF9D0B927
:1023700000200CB0BDE8F081A07DC0F3C00010F0DB
:1023800095F907460DF12B0010F092FC7978804604
:10239000BA1C387814F0FCF89DF82B000022414656
:1023A00014F02CFBB4E74C494C484D4A40F20B2347
:1023B0001AF008FC4A4840F20B2119F0F9FFD7E760
:1023C000012010F073F94178821C007814F0E0F8D5
:1023D0009EE744494148424A40F206231AF0F2FB84
:1023E0003F4840F2062119F0E3FFBDE73E4A07925D
:1023F0003E4A059240F2F31200930892CDE903663B
:10240000CDE9016606943B463146032204F0EEFA1C
:1024100010F0FD0F9ED036493048314A4FF4FA7320
:102420001AF0D0FB2E484FF4FA7119F0C1FF91E772
:1024300014F072F864E72F492848294A4FF4C5730D
:102440001AF0C0FB26484FF4C57119F0B1FF2FE711
:10245000636893F82030D90705D4636893F8203077
:102460009A077FF50CAF2448214613F08DFC13F03A
:1024700005FE7DE71A4A2149184840F2E5131AF093
:10248000A1FB1F4B0721A8FB030301FB08310CA391
:10249000D3E90023FDF734FE1A4902461A481AF020
:1024A00091FB0F4840F2E51119F082FF17482146D1
:1024B00013F06AFC13F0E2FD6FF08B0059E700BFE8
:1024C00000CA9A3B00000000D6BE898E55555500C3
:1024D000B125000088180020C4E8010058E7010079
:1024E00010F90100CCE801008547010021480100F6
:1024F00014EC0100A0F80100D1380100D8E7010078
:102500008D49FD1A5CF90100D8F80100654601000B
:1025100038B5044612F058F8A37DA27DC3F34103F9
:10252000013303F00303032B08BF002363F34202CC
:1025300014BF03F125002520A27511F019F9636875
:102540000BB123694BB904F0E7FBC11C002014F068
:10255000E1F8BDE8384014F057B914F009F9054620
:1025600004F0DAFBC11C002014F0D4F814F04CF98C
:1025700014F0FEF8294604F0D1FB0B4A034607216C
:10258000A0FB020201FB032105A3D3E90023FDF711
:10259000B7FD23691B1A236138BD00BFAFF300806C
:1025A00000CA9A3B000000008D49FD1A000000009F
:1025B0002DE9F04F8BB0044613F006FB13F092FDAB
:1025C000C0B250B911F02CF9C548214613F0DCFB1C
:1025D0000BB0BDE8F04F13F051BD13F0A3FD05465D
:1025E00014F00AF8074614F011F8814614F066FA60
:1025F000064614F045FA824613F0C0FFEDB280465D
:1026000013F098FF11F00CF9002DDDD0012005F03A
:1026100007FA0546002800F04F8117F0FF07F6B2D1
:1026200040F0E580002E40F0DC804FF0FF093A4694
:102630004B463146204612F0E3F90028C4D02A7FE9
:10264000616800238DF823305FFA88F702F00F03EA
:10265000002900F0EE80616891F82010880700F1F1
:10266000E880072BB0D0A17D090740F14581002B00
:1026700040F0C6806B7F063B1F2BA5D8042005F0D9
:10268000CFF90028A0D014F0C7F8636A804643B998
:10269000238C40F2712202FB03F3B0FBF3F203FB45
:1026A000120823681A698F4B0721A2FB030301FB61
:1026B000023189A3D3E90023FDF722FD6FF44A7CA0
:1026C00000EB0C034345FFF47FAF13F025FF636875
:1026D0000793484610F0D2FAE37D9907824640F10D
:1026E000E681002800F0E38183464FF0010813F0F3
:1026F00027FDCDE9028B09AB049305F11E0301937D
:102700002B7FC3F3801301468046009300220123F0
:10271000204612F08FF9404613F082FC13F0D8FCEB
:10272000002840F0D18113F051FA6F48214613F090
:102730002BFB002F40F0C281626892F8203043F0FA
:10274000010382F82030A37D43F08003A37505F0D8
:1027500089F9172202714FF6FF72C28095F81CE0CA
:1027600043460746CEF3401E00F11C0208F1200844
:102770001D6858689968D3F80CC0C2F80CC01033B3
:10278000434515605060916002F11002F0D11B6862
:1027900013603B7FBC606EF345133B7713F0E8FF9B
:1027A000002E3861099B7B6108BF4FF0FF0987F855
:1027B0001990E37D13F0020303D0BAF1000318BFB0
:1027C0000123BA7E63F30002BA7605F04BF939466D
:1027D000F860386805F074F90BB0BDE8F04F13F0FD
:1027E00001BA5FFA8AF010F0D3FA81461FE7A07DA4
:1027F0005FFA89F1C0F3C00010F064FA814616E771
:10280000012B40F089806A7F0C2A7FF4DDAE2A7F9D
:10281000CDF80090194600230193D20905F1240355
:10282000204612F045F800287FF428AF2B7F03F0F4
:102830000F03002B70D16B7F052B7FF6C5AE252BC8
:102840003FF6C2AEA27D02F02102202A09D16268C1
:10285000002A00F0C180052B7FF6B6AE252B3FF68F
:10286000B3AE63682BB12B7F03F00F03072B7FF40C
:10287000ABAE03209DF8238005F0D2F80546002872
:102880003FF4A2AE05F0EEF84FF6FF73EB800523A0
:102890002B71002F3CD17F20AB7E2876002E08BF05
:1028A0004FF0FF0968F34103286885F81990AB766B
:1028B000294605F005F987E60C490D480D4A40F216
:1028C000C7231AF07FF90B4840F2C72119F070FDB9
:1028D000A3E600BFAFF3008000CA9A3B00000000EF
:1028E0007D4601008D49FD1A65480100A0F80100F0
:1028F00058E7010010F90100B9F1FF0F8DF824909D
:10290000C2F380184BD0227E91453FF4B0AE90E7E1
:1029100013F024FEC0B2BFE7062B8CD04521D9406E
:1029200011F0010139D1012B10D16B7F0C2B7FF4F9
:102930004BAE2A7FCDF800900DF123030193D2090D
:1029400005F12403204611F0B3FF08BB2B7F03F0F1
:102950000F03042B7FF438AE6B7F063B1F2B3FF633
:1029600033AEA37DDB077FF52FAE13F0E9FB2B7FA2
:102970000278C3F38013B3EBD21F7FF425AE083087
:10298000062205F11E011BF0AFFC00287FF41CAEEF
:102990006B7F002B7FF465AF16E66B7F5BE705F17D
:1029A0001E0A09AA5146404610F0A4FA00283FF436
:1029B0003DAFE37D03F0010343457FF437AF51465C
:1029C000062204F108001BF08FFC00287FF42EAFD4
:1029D0002B7F03F00F034AE69620079213F02CFE9C
:1029E000079A104613F042FD032005F019F88046BF
:1029F00000283FF4E9AD05F035F84FF6FF73A8F86D
:102A00000630052388F80430002F6AD17F23002E7A
:102A100088F8183014BF4B46FF2388F8193098F80F
:102A20001A30D8F800006FF3410388F81A30414695
:102A300005F046F813F084FB06460322337862F370
:102A4000030333702B7F3278C3F3801363F3C71211
:102A50000C2332704846737010F010F9E27D920733
:102A600043D5002841D03178324641F0400102F888
:102A7000021B0168C6F8021083889380D5F81E30C7
:102A8000B3606B8CB381304613F0CAFA13F020FBAD
:102A900000283BD113F09AF813F0B6FEA37D22482C
:102AA00043F00103A375214613F06EF994E694F800
:102AB000168004F1190BC8F3801818E613F04EFDC8
:102AC000079B83F8B60037E618491948194A40F2BF
:102AD000A4431AF077F8174840F2A44119F068FCB3
:102AE00021E613F03BFDC3B291E7A37D3278C3F337
:102AF000801363F38612334603F8022BD4F81920AF
:102B0000C6F80220B4F81D209A80B7E707490848A4
:102B1000084A4FF4A5631AF055F806484FF4A5612A
:102B200019F046FCB6E700BF91460100A8F8010085
:102B300058E7010010F901002DE9F041C468A289AD
:102B40004FF6FF739A4282B000F0CB80054612F038
:102B50007DF82B89628AE08A1A4492B21044637F1E
:102B6000A28280B2411CE1825E064FF000016182C8
:102B700004F1180100F1908003F03F000B46A17FA3
:102B8000009004F11F000FF051F80646D4E90B2322
:102B90001344D4E90D0200210244E1626163A16A99
:102BA000A26394F872208B4228BF0B4612F00402F5
:102BB00023637BD013F02AF9002013F093F9201D32
:102BC00013F0E0F92389A17A40F25B6043EA014106
:102BD00013F09CFA304610F0CBFD21465A4813F012
:102BE000D3F8962013F028FD94F85A2094F85B004F
:102BF000C2F3C003002102F0070200F0070013F047
:102C000049FC204612F07EF827682E68384610F0FE
:102C10008FFD06446A6806F10901002013F018FDD3
:102C2000804613F0C5FD002013F0DCFD236B94F803
:102C30005B0003F13002A36B00F00700012103EBFE
:102C4000420513F0FFF94544054494F85B0000F099
:102C50000700022828D004280CBF4FF4BC73282397
:102C600001211D4413F0F0F9284413F093FD13F0F3
:102C7000CBFD13F069FCA18905313246C9B2384653
:102C800010F064FD054698BB204610F0EFFCD8B963
:102C9000002002B0BDE8F0810A4603F03F03E18B5B
:102CA0000FF010F8064671E71823D9E7D4E91701A9
:102CB00002F082FA00287FF47DAF94F8723043F07E
:102CC000040384F8723075E720492148214A40F214
:102CD000551319F077FF1F4840F2551119F068FBA2
:102CE000D6E71D48214613F04FF813F0C7F9CFE798
:102CF000184A1A49164840F24B1319F063FF184B53
:102D00000721A5FB030301FB05310DA3D3E9002334
:102D1000FDF7F6F913490246134819F053FF0D4821
:102D200040F24B1119F044FB1048214613F02CF8E7
:102D300013F0A4F96FF08B00ABE700BFAFF3008096
:102D400000CA9A3B000000008D4F0100C4E801005A
:102D500058E70100DCF90100D1380100D8E7010093
:102D60008D49FD1A30FA0100D8F80100AD38010094
:102D7000F0B5C468A2894FF6FF739A4285B000F09F
:102D80008A80054611F062FF2B89628AE08A1A4424
:102D900092B21044637FA28280B2411CE1825E063F
:102DA0004FF00001618204F118015FD403F03F008D
:102DB0000B46A17F009004F11F000EF037FF06467E
:102DC000204603A912F07AF8039B94F872101A783F
:102DD00061F3C3021A70039A94F872301178C3F346
:102DE000400363F38201117013F010F8002013F018
:102DF00079F8201D13F0C6F82389A17A40F25B60B0
:102E000043EA014113F082F9304610F0B1FC039916
:102E1000204612F027F82146374812F0B5FF9620D9
:102E200013F00AFC94F85B0000F0070013F01EFB9F
:102E300027682E68384610F07BFC06446A6806F165
:102E40000901012013F004FC13F0DEFCA189053117
:102E50003246C9B2384610F079FC054610BB204610
:102E600010F004FC50B9002005B0F0BD0A4603F094
:102E70003F03E18B0EF026FF0646A1E71F492048DD
:102E8000204A40F2031319F09DFE1E4840F2031140
:102E900019F08EFAE7E71C48214612F075FF13F08F
:102EA000EDF8E0E7174A19491548F92319F08AFEA9
:102EB000174B0721A5FB030301FB05310CA3D3E945
:102EC0000023FDF71DF913490246134819F07AFE55
:102ED0000C48F92119F06CFA1048214612F054FF01
:102EE00013F0CCF86FF08B00BEE700BFAFF30080AB
:102EF00000CA9A3B00000000914D0100C4E80100A7
:102F000058E701003CFA0100D1380100D8E7010080
:102F10008D49FD1A8CFA0100D8F80100AD38010086
:102F200038B5094D4FF0FF324FF0FF3328461AF005
:102F300040F8044602F09EF810B1204614F060F804
:102F400018F096FCEEE700BF1C1A002002488368C8
:102F5000DB6A03B11847704744E401000348836803
:102F60005B6A03B118476FF05700704744E40100F3
:102F7000024883681B6A03B11847704744E40100A4
:102F800010B4034606480A4681688C691CB119468C
:102F9000234610BC18476FF0570010BC704700BFA5
:102FA00044E401000146024883685B68184700BF9B
:102FB00044E4010038B5002000F04CFE044618B18E
:102FC0006FF01504204638BD0C4D28461AF05FFC02
:102FD0000028F5D0FFF7BAFFFFF7CAFFAB682BB1A7
:102FE0009B6C1BB10649224628469847AB689B6AF2
:102FF000002BE7D001489847E4E700BF44E4010014
:10300000053000002DE9F04F644885686B6B8DB08A
:103010001BB1984708B9FFF7A1FFFFF79FFF58B111
:103020005F4C23689BB95F480022002319F0C1FF61
:10303000206060B9FFF79CFF6B6BFBB95A4F5B4D8B
:103040003B78032B1ED8DFE803F02033829B2368F4
:10305000D9681A8A6B6973B150489847014620684D
:103060000C3019F0D6FF2068068A002EE4D113F048
:10307000C7FF2660E0E76FF05701F0E74748984741
:103080000028DBD10DB0BDE8F08F494C012120466E
:10309000FFF776FF0028F5D02078431E012B01D9D9
:1030A0000528CDD119F079F9012328603B70C7E7D5
:1030B000DFF8FCB0DFF8FCA09BF8000019F06DF918
:1030C0002968401A5044FFF75BFF2B681E1A04461C
:1030D0002E60002E50D10123CDE900B30022002341
:1030E000062001F061FFDFF8D0908046C9F80000AB
:1030F00008B93870C6E79BF80000022822D00528DE
:103100001BD0012801D19AF802602E6019F045F910
:103110002849024608F10C0019F069FFD9F80000AF
:103120000C3019F086FF2B6898420ED2D9F80000B7
:1031300013F066FF03233B701EE0BAF80230C3F3BE
:103140000D06E2E7BAF80260DFE70223F3E71A4E62
:10315000296833681A8AD8681044FFF711FF31686C
:103160002E680B8A361A034404460B822E601EB961
:10317000124819F020FF3E70002C7FF461AF81E708
:103180002968212928BF212103A8FFF7F9FE2B6810
:103190001B1A04462B60002BEED1CCE744E401005F
:1031A00048290020341A00207B26012044290020D1
:1031B0007A26012076260120402900201C1A0020B2
:1031C00070B5184888B001F05FFF00220023CDE9F8
:1031D000062300236FF00802CDE90323CDE9013374
:1031E00000931149114B12484FF4806217F0D0FD43
:1031F00010490F480B4D104E104C1AF00DFC4FF0BB
:10320000FF324FF0FF33284619F0D3FE0146304617
:1032100019F0D1FEA368DB69002BF0D02046984757
:10322000EDE700BF041A002000270120212F000035
:10323000C01B0020D0FF0100341A002044E401002C
:10324000014B1B68184700BFC000002030B585B097
:1032500004460D461022002168461BF02AF802237E
:103260008DF802302A46044B01932146684618F037
:103270004BFE05B030BD00BF4132000080B50546B1
:103280000E461746984618F0A9FB03461BF064F853
:10329000DFF81890044649F8003042463046394677
:1032A000A84754F8090001F0B3FB00BF0800000074
:1032B0002DE9F047058B04462807904611D40229D2
:1032C00005F0070540F0CD80204619F0AAFA78B144
:1032D0000138218B042811D8DFE800F0C3106D8578
:1032E000950001290CBF45F0100545F02005258308
:1032F00088F31188BFF36F8FBDE8F08701F0070AEC
:10330000AA4500F0A6800027B9463E46A368002BD8
:1033100000F0BD8041F00801218388F31188BFF3DC
:103320006F8FA168002900F0BB800D68002900F0B4
:10333000B780D1F80480334652462046C047002D5E
:1033400076D02B6829461D46F0E701F007035A1F87
:10335000012A1BD8002221F00701062B276889B219
:10336000C4E9002209D13B4603E0628B013262834B
:103370001B68002BF9D141F002012183204619F08E
:1033800050FA00287BD041F0200177E0042B0AD1CD
:1033900021F0070189B22183204619F042FA10B1C9
:1033A00041F020012183218B01F0070AAA4550D06A
:1033B0000027B946AAE7236921F0070141F0060179
:1033C000062DD3F8009021832DD1B9F1000F40D004
:1033D00041F00801218388F31188BFF36F8F3A49C8
:1033E0002046C84729E021F00701236941F0040184
:1033F00089B2042DD3F804902183E6D000273E46FD
:103400004FF0040A82E721F00701236941F005012A
:1034100089B2052DD3F808902183D6D000273E46E7
:103420004FF0050A72E700273E464FF0060A6DE7A7
:103430002B4687E7B9F1000FD1D14FF02003EFF30E
:10344000118883F31288BFF36F8F238B23F0080357
:103450002383258BEA062ED525F01003238305F060
:1034600007056669218B002EBFF66FAF0023276822
:10347000C4E9003321F0070141F001012183218BD0
:1034800001F0070AAA454FF000097FF43FAF002F73
:103490009BD041F00801218388F31188BFF36F8F1F
:1034A000002FC7D03D68394633465246204619F0B2
:1034B000E4F92F46F4E7AB067FF51AAF25F02003B9
:1034C000238305F00705FFE6A7C8010015F02EBC11
:1034D000014B03600020704718E60100F0B40C4B6C
:1034E0000C4E5F6A0C4BB34203D36FF08500F0BC07
:1034F00070475D68BD4209D31C693CB195F802C0B4
:103500000579AC4502D12346F0BC18472433EAE7DD
:103510004C290020C01B00209C1B00202DE9F047F7
:10352000134CDFF85080DFF8509005460E461746E2
:10353000444503D36FF08500BDE8F0876268D9F891
:1035400024309A4212D3A36983B1907829798842B2
:1035500005D13A4631462846BDE8F047184752792A
:10356000012A03D13A463146284698472434DFE7FA
:103570009C1B0020C01B00204C2900202DE9F0419D
:103580000B4CDFF8308005460E461746444502D303
:103590006FF0850009E063690BB92434F6E73A4619
:1035A0003146284698470028F7D1BDE8F08100BF92
:1035B0009C1B0020C01B002010B5044619F06DFDB7
:1035C00010F1780F00D050B9054A204619F008FBD9
:1035D000D2F8C43023EA0003C2F8C430002010BD82
:1035E0004C290020024B00221A605A60704700BF2D
:1035F000072A002070B50B4B0B4CA34201D30020CF
:1036000070BD196A1E7F00220439D5B2AE4201D8BE
:103610002433F2E7013211F832508542F5D101200E
:10362000EEE700BF9C1B0020C01B002008B5094826
:103630000378C3F341130A3350F823303BB100F150
:10364000080200F110019847C043C00F08BD18469A
:10365000FCE700BF4C29002004282DE9F14FDFF8DA
:10366000989004460F4616D001282DD1DFF88C80A3
:1036700098F8B93043B300F003FE214D4D4520D2F8
:10368000D5F820B04FF0000A2B7F5FFA8AF6B342DC
:1036900004D82435F2E7FFF7A5FFE7E70BEBC606F2
:1036A0000AF1010A307919F0F8FC0246307919F074
:1036B00097FAD8F8C430002A23EA0003C8F8C430C7
:1036C000E2DA002388F8B9300D4D4D4508D30B4B95
:1036D0001B6A6BB13946204601B0BDE8F04F184770
:1036E000EB681BB13A462146284698472435ECE75B
:1036F00001B0BDE8F08F00BFC01B00204C290020A6
:103700009C1B002073B5C4B263060D468DF80740BC
:1037100007D02046FFF76EFF78B10D4B93F8BA0043
:1037200058B10B4E204655B114F072F8F3691BB135
:103730000DF1070108209847012002B070BD14F078
:103740008FF8F369002BF7D00DF107010920F2E79C
:103750004C29002073B586788DF800600379427992
:103760001C4C43EA0223ADF80230C378304603F024
:1037700003038DF8043019F033FAD4F8C43018423A
:1037800005460BD0304600F05DFD3046FFF714FFD4
:103790001AF03CF910B9962018F006F9684614F0B2
:1037A00013F810F1780F03D010B1002002B070BDF3
:1037B0009DF8000014F090F810F1780F01D0002867
:1037C000F3D1D4F8C43001202B4384F8B900C4F8F5
:1037D000C430EBE74C2900202DE9F047A34EB36934
:1037E00004460F461546FBB9237803F01F03012B4F
:1037F00000F09D80022B00F0048133BB94F900009F
:103800002A686178002834DA062912D008292BD0DA
:10381000D9B901231370517096F8C3305B0043F09F
:103820000103137002232AE198470028DCD100200D
:103830000DE06288100A011F0129844605D9072876
:1038400003D8716AD2B20C781CB96FF01500BDE8CC
:10385000F0874E78664503D19A4200F00B81013320
:103860002144F0E70B780AE196F8BA30137001238F
:1038700005E101390829E8D801A353F821F000BF78
:10388000193900004B380000273900004B38000080
:10389000A53800004B3800004B3800004B380000C2
:1038A000B1380000A07813F07DFF0028BFD0CCE72E
:1038B0006388756A63BBFFF795FE638886F8BA3044
:1038C000F369002BB3D06A4903209847AFE76B78C0
:1038D000042B10D0052B11D0022B04D16F796388F3
:1038E000BB4208BF01202B781D442B78002BEED162
:1038F0000028AAD0DFE795F80380F4E76388BB428D
:10390000F1D1B8F1000FEED12846FFF723FFEAE727
:10391000FF270020B846E8E76388012B95D10023F4
:1039200086F8C33083E76388012B8ED1F8E796F8D9
:10393000BA30D5F800C0002B87D0756AA38894F8F8
:1039400004E02A46107800283FF47FAF517802291E
:1039500004D192F80480F04500F293800244F1E72C
:103960008CF800208CF80120396060E7154494E061
:103970000B2A7FF46AAF00274FF0FF08C146BA4612
:1039800006E06B78042B0FD0052B21D02B781D443B
:103990002B78002BF5D1F36913B1514607209847D6
:1039A000002F7FF444AF50E795F80280A38895F884
:1039B00003909845EAD163889945E7D1B8F1070F9C
:1039C0001CD806EB0803AA4683F8BB900127DDE765
:1039D000A3884345DAD1A3784B450AD0AF7838465F
:1039E00000F030FC3846FFF7E7FDB0FA80F77F09BA
:1039F000CCE72846FFF7AEFE0746C7E7AA460027F2
:103A0000C4E794F900206378002A18DA002B7FF4C9
:103A10001CAF24792D6863060AD02046FFF7EAFD23
:103A200000283FF412AF96F8BA30002B3FF40DAFE8
:103A30002946204613F034FF00236B70F2E6012B79
:103A400008D0032B7FF401AF6388002B7FF4FDAE19
:103A5000012103E0618800297FF4F7AEA088FFF719
:103A600051FE00287FF4E3AEEFE600BF4C290020B2
:103A7000062A0020022829607FF4F4AE4B883B60C0
:103A8000D5E694F9000062780028BFF671AF002AED
:103A90003FF466AF0A2A7FF4D8AE2A78002A3FF4B2
:103AA000D4AE697804297FF461AFA9788B427FF4A2
:103AB0005DAF072B96BF9B19002393F8BB308CF8A2
:103AC0000030D4E613B5164C237DF3B9E268A16843
:103AD000019201AB802019F091F8019AA368134478
:103AE000A360E3689B1AE3606BB962B12369E28863
:103AF0009A4208DD94F8C82093FBF2F102FB1133DF
:103B00000BB90123237502B010BD00231A461946D4
:103B10008020237502B0BDE8104013F007BF00BF3E
:103B20004C29002030B585B0002302460D46019394
:103B3000002858D1002935D108220B460DEB02018F
:103B400019F0C4FA002804DA802013F061FE05B0F1
:103B500030BD2A4C029A2260039A626004F1380256
:103B6000A2609DF90820BDF80E302575002AC4E931
:103B700003550ADB802B04D9802013F049FE002076
:103B8000E3E713B1C4E90333E1E7FFF74FFD002892
:103B9000DAD0E28823699A42D4BFE260E360FFF79B
:103BA00091FFD4E7154CD4E90215002D01AB04DCDC
:103BB00019F08CFA0028CADAC6E72A4619F086FA04
:103BC0000028D9DB019AA3681344A360E3689B1A19
:103BD000E360002BBBD104F13803A360FFF726FD9F
:103BE0000028DCD1B0E78028B1D1044BDA68002A84
:103BF000D5D11B7D002BD2D1A9E700BF4C290020D5
:103C0000054B064A9A62064ADA62064A1A63064A6F
:103C100058629A61002070474C290020D937000073
:103C2000DD3400007D3500001D35000010B5084B67
:103C300093F8B84034B900F0E3F830B1FFF7E0FF93
:103C4000204610BD6FF07700FBE74FF0FF30F8E73C
:103C50004C2900202DE9F341414D04466F6A41484B
:103C60004FF0FF324FF0FF3317F00AF995F8B860C4
:103C7000002E6ED13C482C62E86113F071FF13F006
:103C80005FFD041E49DB00F01FFB041E45DB7B7853
:103C9000012B61D1FB79002B5ED0684685F8C830D6
:103CA000ADF802308DF804608DF8006013F08CFDE3
:103CB000041E32DB802768468DF8007013F084FD07
:103CC000041E2ADB2949304613F036FF041E24DB8C
:103CD0002649384613F030FF041E1EDB244CDFF863
:103CE0009480444520D3002013F0F6FD041E14DB1D
:103CF000D5F8C430802043F00103C5F8C43013F078
:103D0000EBFD041E09DBD5F8C43043F48033C5F85D
:103D1000C430012385F8B8300024124817F02AF97E
:103D2000204602B0BDE8F081276A0026227FF3B268
:103D30009A4201D82434D4E707EBC30257F8331072
:103D4000107913F0F9FE01360028EFD04FF0FF3460
:103D5000E3E76FF07704E0E76FF01504DDE700BFFD
:103D60004C290020F019002059360000253B0000A6
:103D70009C1B0020C01B002030B51F4B8BB005AA38
:103D800003F1100518685968144603C40833AB42A0
:103D90002246F7D11B7823701022002101A81AF0C7
:103DA00088FA1222002115481AF083FA102101A87E
:103DB00019F081FA00281BDD0828B8BF082009384F
:103DC00001AB0E491A18002012F8013F0AAC04EBAF
:103DD000131403F00F0328336B44013014F8144C10
:103DE00013F8143C0C7008284B7001F10201EBD160
:103DF00002480BB030BD00BFDCFF01007C26012073
:103E00002DE9F04F704C87B04FF0000B00264FF0BB
:103E1000011AB0463546B14623782BB96B4B0234B4
:103E20009C42F3D1684833E06378052B1BD8DFE868
:103E300003F09003C8901D3B402304A88DF810B0F8
:103E4000ADF812308DF814B019F012F940B1082312
:103E500004A8ADF8123019F00BF908B1ADF812B0A2
:103E6000BDF81230E37123781C44D5E7E378002BCA
:103E7000F9D1A3787BB108F101085FFA88F8F2E77D
:103E80006B689C4209D02435514B9D42F8D30020E9
:103E900007B0BDE8F08F4F4DF6E7AB68002BEAD0D6
:103EA000414620469847E6E7002DF0D000222B7FC0
:103EB0009A42ECD2296AA07801EBC2010B799842B0
:103EC00001D00132F3E70127E07800F003008DF81C
:103ED0001400207994F805C040EA0C20ADF81200D7
:103EE00094F902000028FBB228DA07F110004FF025
:103EF000010C0CFA00F010EA0A0F26D143F0800002
:103F00008DF8100004A8CDE90213019219F0B0F861
:103F1000DDE90121039BC0B99DF81020A27012F0C9
:103F2000800F18BF10330A7118BFDBB24FF00102C7
:103F300014BF9A40BA404AEA020A94E70120B84006
:103F400010EA0A0F01D11846DAE70137102FBBD16A
:103F5000B7E7032E1DD1FFF70FFF074668B1FCF747
:103F600039FA102809D13846A31C07F1100250F87D
:103F7000041B43F8041B9042F9D123786FF002012F
:103F8000E218091B04EB5303D14213D50136F6B2F4
:103F900069E7002EF1D1B9F1000F3FF478AFA4EB3F
:103FA000090389F80230C3F3072389F8033089F83D
:103FB0000480EBE702F801BC13F8010902F8020DD6
:103FC000E2E7A1464FE700BFE81A00209B1B002054
:103FD000C01B00209C1B002010B5094B00211A4675
:103FE0001C78844205D15C681CB1482303FB012086
:103FF00010BD0131042903F14803F1D10020F7E796
:10400000182A00202DE9F34150F8303C10F8346CA8
:10401000103304460AD1036950F8282C980736D586
:10402000D2B9590715D5002344F8303C54F8303C38
:1040300010330BD054E9097554F81C8C19F0E6FCC8
:1040400000284FD02E48214619F059FE02B0BDE895
:10405000F08143F00403236154F82C1C01AB30467B
:1040600018F0CCFD10B16FF01503DDE7019A54F89C
:104070002C3C134444F82C3C54F8283C9B1A44F83C
:10408000283C54F8243C134444F8243CCEE754F82C
:104090002C1C01AB304613F0C5FC0028E3D1019D78
:1040A00054F82C3C2B4444F82C3C54F8283C5B1B23
:1040B00044F8283C54F8243C2B4444F8243C002D7C
:1040C000B1D0304613F052FDB5FBF0F303FB1055B1
:1040D000002DA8D154F8283C002BA4D0304613F072
:1040E000E9FCA3E744F8200CA4F1180016F0B2FF95
:1040F000002DABD0424639463046A847A6E700BF60
:10410000401C00204B1E012B73B506460D460FD8F0
:10411000FFF762FF044668B9012D09D101AB012206
:104120000DF10301304613F07DFC019B002BF5D10E
:1041300002B070BD19F06AFC04F1340108B1012D20
:1041400005D1084602B0BDE87040FFF75BBF0348E9
:1041500002B0BDE8704019F0D2BD00BF401C002085
:104160002DE9F74F804600911746994618F08EFDCD
:10417000044600285DD14FF02003EFF3118B83F349
:104180001288BFF36F8F2C4900220846002301914B
:1041900016F086FF019968B9DFF8A0A048226243B3
:1041A0000AEB02056E6816F1100F12D1084616F0E0
:1041B00051FF06E00134042C01F14801E4D16FF015
:1041C0000B068BF31188BFF36F8F304603B0BDE849
:1041D000F08F0AF802800C9A009B6A610D9A2861A0
:1041E000AA6140466FF00F02C5E90237C5F8449056
:1041F0006A6013F0BBFC58B1404613F0B7FCB7FB44
:10420000F0F202FB10771FB16A6C42F004026A649C
:1042100019F0020F08D0482202FB04A108483431EB
:1042200019F06DFD0026CCE7404613F043FC06462E
:10423000C7E76FF00F06C8E7342A0020182A0020CD
:10424000401C002010B54FF02003EFF3118483F3DE
:104250001288BFF36F8FFFF7BFFE50B14368103372
:1042600007D16FF08B03436000F13401034819F06C
:1042700046FD84F31188BFF36F8F10BD401C0020F2
:1042800070B50F4C04254FF02003EFF3118683F334
:104290001288BFF36F8F6368103307D16FF08B0301
:1042A0000848636004F1340119F029FD86F3118890
:1042B000BFF36F8F013D04F14804E4D170BD00BF2E
:1042C000182A0020401C002070B50A4C0A4E002518
:1042D0003146204619F0F6FC0122A4F118001146DF
:1042E000013519F06CFC042D04F14804F0D10020D4
:1042F00070BD00BF4C2A00200540000008B50146F3
:10430000034818F0ADFC10B1012300F8073C08BDCC
:10431000382B00200169012381F84B300B6833B141
:1043200091F849301BB10248083119F0E8BC7047D8
:10433000401C00200169012381F84A300B6833B129
:1043400091F848301BB10248083119F0D8BC7047C9
:10435000401C002038B5056995F89E0088B195F895
:104360009F307BB985F84830D5F8900018F0B6FB3F
:10437000002204460023044805F1180117F008F84C
:10438000204638BD0020FCE7401C0020F0B5D0F8E6
:104390008C305B681B6A1F7D85B00546384618F077
:1043A00075FC0646E0B9A86F4FF4806203A918F0C7
:1043B000B4FB0446A0B18306A5F1180308BF00F1C1
:1043C000FF3485F830600193064B03990093224631
:1043D00002233846FFF7C4FEA86F214618F0BDFB44
:1043E00005B0F0BD8944000070B504460E46017961
:1043F0001548154618F026FC10B394F90020637890
:10440000002A16DB202B04D0222B0ED06FF0850063
:104410000AE02B681A6840F8102C9A8820F80C2CB7
:104420009B7900F80A3C002070BD638800F8093CC5
:10443000F9E7212BEAD11038072328603360F2E72F
:104440006FF01200F0E700BF382B00200D4A034642
:104450000021A0F848101068C3F894009088927961
:10446000A3F8980083F89A2083F89C1083F89B1097
:10447000A3F89E1083F8A010402203F14C0019F01D
:1044800018BF00BF08E6010010B5012382F84830CC
:10449000136814463BB192F84A3023B10A4802F13E
:1044A000080119F02CFCD4F890309A681B699A42E4
:1044B00008D004F118010448BDE810400022002390
:1044C00016F066BF10BD00BF401C002010B5046987
:1044D0000023C4F8A8300C4BC4F8A400596804F1B8
:1044E000A80269B9C3E9002204F10800074919F0DC
:1044F000E9FB04F11800064919F012FC002010BD78
:104500000A605A60F0E700BF382B0020B7CC0100EA
:104510008D43000013B504698DF8071094F89E30A0
:10452000B3B194F89F309BB984F84830D4F8900028
:1045300001220DF1070118F0D1FA10B919F066FA4D
:1045400040B109482122002304F1180116F020FF90
:1045500002B010BD94F8A130002BF2D00021212030
:1045600017F008FAE2E700BF401C002037B51446F8
:104570000A1E054620DDD4F88C0004F14C0118F029
:10458000ADFA012384F8493023683BB194F84B30ED
:1045900023B1114804F1080119F0B1FBD4F88C10D3
:1045A0004B684A699A1ACB699B1A3F2B04D801239E
:1045B00084F8A03003B030BD94F89E30002BF9D0C1
:1045C000064B009301940123402204F14C0128463C
:1045D000FFF7C6FDEEE700BF401C00206D45000060
:1045E00038B50D4601461E4818F020FB044680B33E
:1045F0000246691E52F8A4395B68052929D8DFE80C
:1046000001F020280320252914F8061C31B90120C7
:1046100004F8060C1B6A187BFFF7A8FF14F85C3C33
:10462000BBB9012304F85C3C54F8A43C8BB114F8EA
:104630005A3C73B1A4F19C010A48BDE8384019F016
:104640005EBBBDE838401046FFF700BF012304F809
:10465000053C38BD14F8053C002BFAD00023F6E7E2
:10466000382B0020401C002037B5094D0949002493
:1046700000944FF0FF334FF48062284616F050FE4E
:104680000549284619F0C8F9204603B030BD00BFDF
:10469000401C0020402B0120F7FF010030BFFFF736
:1046A000FDBF00BF114B124A2DE9F041D518DFF8CC
:1046B0004480013DB5FBF3F55D430F4B08EB03046C
:1046C000013CB4FBF3F403FB04540E1B07460B49F7
:1046D000304619F0E0FD701942460021083E19F0FD
:1046E000E8FD7E6704F10800BDE8F08101000000EC
:1046F000000000000400000004000000ECE50100E0
:10470000044B99685869884203D003494FF080529E
:104710000A6070473426012004ED00E070B5264B96
:1047200015469A6A12F0100F9A6A14BF11241024C9
:1047300012F0080F9A6A18BF1224920706460AD58B
:10474000586B9A6A140634D519B19A6A22F080021D
:104750009A62132401E06FF01500174B9A6A12F069
:10476000010F9A6A18BF142412F0200F9A6A18BF1A
:104770001524D20602D49B6A9B070AD50E4B5B68B0
:10478000190506D5314600F03BFA10B180F30988CF
:104790000224094B9A6A920642BF5A6A22F40052D6
:1047A0005A629A6A42F0FF029A6200232B702046F6
:1047B00070BD6FF01500CCE700ED00E0134B9A6A76
:1047C00012F0007F9A6A14BF1E201D2012F0807F15
:1047D0009A6A18BF1F2012F4002F9A6A18BF21206E
:1047E00012F4802F9A6A18BF222012F4003F9A6AAE
:1047F00018BF232012F4803F9A6A6FEA02426FEAE0
:1048000012429A6218BF2420704700BF00ED00E0FA
:1048100010B5194B0246986A9C6A10F4805F14BF69
:104820001720162014F4006F9C6A18BF1820A405E6
:1048300009D5986B986A000404D51AB19A6A22F4D3
:1048400000429A6219200C4B9A6A12F4806F9A6A9D
:1048500018BF1A20D2050CD49B6A13F4005F18BF4E
:104860001C20054A936A43F47F43936200230B7034
:1048700010BD1B20F5E700BF00ED00E0F0B5484B90
:104880005B688BB00446C3F30803002585F31188E9
:10489000BFF36F8F02F07F40B0F17F4F11D102F074
:1048A0000C0008280DD010074CBF0C460125002233
:1048B000033B8DF80720032B05D8DFE803F02463C2
:1048C00067602C46F3E700239DF80720CAB902AEC3
:1048D00004F1200720686168324603C20834BC42F4
:1048E0001646F7D1099A002D54D0C2F3080121B918
:1048F0006FEA52226FEA4222099202A9184618F082
:1049000076FA0BB0F0BD264BDA6A9107DBD4DA6A8F
:10491000002AD8DBDA6A5200D5D55A69A16942F477
:1049200080725A61BFF34F8FBFF36F8F5A6931F8AE
:10493000021C22F480725A61BFF34F8FBFF36F8F56
:104940004DF6027291420AD09A6AD2B24AB10DF182
:10495000070201212046FFF7E1FE0346B4E7236882
:10496000B2E79A6A12F47F4F05D00DF107010120DA
:10497000FFF74EFFF1E79B6AB3F5803FA3D3FFF744
:104980001DFFEAE70DF107020021E3E70DF1070142
:104990000020EDE722F4FF7222F00102ACE700BF35
:1049A00000ED00E0024A536943F010035361704781
:1049B00000ED00E0EFF30880EFF3098101B57246E6
:1049C000FFF75CFF01BD00BF044800232021C2188F
:1049D0000133302B82F80013F9D1704700E100E079
:1049E000FEF774FD202080F3118808484FF404611D
:1049F000401880F30988EFF314800221084380F304
:104A00001488BFF36F8F00F0BBF80000003901205D
:104A1000084B9B6883420BD1EFF3058343B1064BF0
:104A20005A6842F080525A605A6A22F400425A622E
:104A300016F0DABF3426012000ED00E0094A936841
:104A40006FF00A01D967084998674B6843F08053B3
:104A50004B60002383F31188BFF36F8F9368D86F87
:104A6000704700BF3426012000ED00E015498A6838
:104A70004FF030001044EFF3098C80E8F01F202045
:104A800080F31288BFF36F8F0F4F4FF000664A69B3
:104A90008A603E604FF07404141920680B4C20604B
:104AA000906F0023936780F3118804B5104600F0DF
:104AB00019F9BDE8044002F1300090E8F01F8CF3D2
:104AC000098870473426012004ED00E0402B0020C7
:104AD0001EF0040F0CBFEFF30880EFF3098081692B
:104AE00011F8021C0229FFD001B518F082F901BDAE
:104AF00040B2002807DB044A4109012300F01F00EF
:104B0000834042F82130704700E100E040B20028C5
:104B10000CDB4309064900F01F00203301228240CC
:104B200041F82320BFF34F8FBFF36F8F704700BF53
:104B300000E100E0054B420900F01F0053F822207D
:104B4000012303FA00F01040704700BF00E100E0CD
:104B500040B20028A8BF00F1604001F10101B8BFD8
:104B6000064B4FEA4111ACBF00F5614000F00F0069
:104B7000C9B2B4BF195480F80013704714ED00E0B7
:104B80000F4A08B50F4B22F07F029A60BFF34F8F98
:104B9000BFF36F8FD3F8882022F47002C3F8882007
:104BA000EFF3148323F0040383F31488BFF36F8FB0
:104BB00015F09CFF16F08AFFFFF706FF15F0E8FFDF
:104BC0000000000000ED00E042F8203C009B42F8AD
:104BD0001C3C0A49019B42F8183C029B42F8143CD9
:104BE00021F001014FF0807342F8043C42F8081CA8
:104BF0000023203A02658367704700BF7D320000C2
:104C0000094A0346906870B113F1160F406E05D043
:104C1000A0F140029A4205D8834203D2814228BFC4
:104C200000207047002070473426012008B5144644
:104C30000A4A0B4B9060426F1A600D4600F052F822
:104C4000204685F30988002163B681F31188BFF3FC
:104C50006F8F00220023FEF711FB00BF34260120D6
:104C6000402B0020014910220A60704710ED00E03F
:104C700072B6404080F31188BFF36F8FBFF34F8F40
:104C800030BF62B6BFF36F8F704700BF72B6494046
:104C900081F31188BFF34F8F20BF80F3118862B674
:104CA000704700BF01B5EFF30580A0F110004FEA97
:104CB000C0000449014409C99847BDE801400249C0
:104CC000084700006CE4010001470000024B034A62
:104CD0000348012100F040B800000420000000203B
:104CE00064E60100426E054B403A1A60044A4021D6
:104CF000C3E901121846012100F038B8442B002006
:104D000000000B15084AC2F898000B6823F01F0337
:104D1000034343F01003C2F89C308B6843F0010357
:104D2000C2F8A030704700BF00ED00E0044B052240
:104D3000C3F89420BFF34F8FBFF36F8F704700BF4E
:104D400000ED00E0BFF35F8F024B0022C3F8942018
:104D5000704700BF00ED00E010B5034C012322783E
:104D600018F066F8207010BD8E26012008B5094A9B
:104D70000023127818F05CF810F1160F03D0064BE0
:104D80000022072800DD08BDC3F89800C3F8A02062
:104D90000130F6E78E26012000ED00E0F0B5454D2C
:104DA0002C68082C85B000F28280FFF7CBFF002032
:104DB0000C2684420DD1404D404F2C706846FEF7C2
:104DC00087FB00240646A6420AD1FFF7AFFF00206A
:104DD0001CE0696806FB0011FFF794FF0130E8E76B
:104DE000009800EB04114FEA041CCB683B40B3F57C
:104DF000000F4AD00CD8B3F5001F30D0B3F5800FA8
:104E000038D0B3F5801F12D06FF0150005B0F0BD9B
:104E1000B3F1807F42D0B3F1007FF5D150F80C3070
:104E200088684A6817F0F4FF40F4802009E050F8E1
:104E30000C3088684A6817F0EBFF40F0885040F467
:104E40003020039028780728CDE90123DCD801A978
:104E5000FFF758FF2B7801332B700134B3E750F87C
:104E60000C3088684A6817F0D3FF40F0885040F44F
:104E70000020E6E750F80C3088684A6817F0C8FF51
:104E800040F0E06040F40030DBE750F80C30886818
:104E90004A6817F0BDFF40F08270D2E750F80C303E
:104EA00088684A6817F0B4FF40F08870C9E74FF08F
:104EB000FF30ABE770E601008E2601200000F0FF16
:104EC00008B5044817F0BAFA404080F311884FF053
:104ED000020002DF0000020008B50649064821F082
:104EE0000701C1F1005202F5802217F042FC0020B8
:104EF00008BD00BF83A30320502B00200E4A0123CE
:104F0000C2F840354FF080424FF08051C2F87835FA
:104F1000D1F83001082808D1D1F83411052904D876
:104F20000648415C09B1C2F838364FF0804301228F
:104F3000C3F880250020704700E001402D000200EA
:104F400020B1034B800143F001031847704700BFB5
:104F500010E60100074A0346106828B9D96831B144
:104F6000596921B1136070476FF0770070476FF097
:104F7000150070475C2B0020052838B5054608D879
:104F80002A21C140C90704D5064818F00DF8044687
:104F900010B90024204638BD01210C3018F01DF84E
:104FA0002576F7E7BC1A00202DE9F0410228DDE95B
:104FB0000667044630D0062802D050B91A4810E0DF
:104FC0001A490978012904D13478012C05D0022C22
:104FD00020D000252846BDE8F08113480024013682
:104FE000013F17F0E1FF05460028F2D000F10C0860
:104FF0000121404617F0F1FF2C76002EEAD0002F59
:10500000E8D0404618F015F8B84207D2284611F00B
:10501000F7FFDEE70648E2E70548E2E73A463146B1
:10502000404617F0E4FFD5E7901A0020C41900208D
:10503000641A002010B50D4B1B78012B04460CD1CF
:10504000037E012B04D0032B0ED06FF0150010BD92
:10505000042104F10C0017F0D3FF054B214618681A
:1050600017F0A9FF0020F2E70221F2E7C41900209F
:10507000602B0020038A1BB1024B1B685B69184739
:10508000122070475C2B0020044B054A1B681060FF
:105090000BB1DB6818476FF0120070475C2B0020E3
:1050A000602B002000F1070C2CF0030C10B4541EF0
:1050B0001860A4B2ACF80020023A93B201FB04F2EB
:1050C0004FF0000C40F802C074B103FB011403FB65
:1050D00001F22044121B4FF6FF7C013B9BB263455B
:1050E0008050A0EB0100F8D110BC70470346006867
:1050F00010B102680AB91A60704700F1070C2CF071
:10510000030CD11DBCF800C021F003010CF1FF3CE1
:10511000A1F800C0EFE700BF0B687BB1073323F0B5
:1051200003031A88013292B20346D1F800C043F853
:1051300007CB23F003031A80086070470122F3E7CE
:1051400002FB0100704700BF401A90FBF2F080B2F2
:10515000704700BF531E11449BB242B1DB4301387C
:10516000CA1811F8013D00F8013F9142F9D170478A
:10517000014402E010F8013B1BB98842FAD100203B
:1051800070470120704700BF10600860704700BF83
:105190000A6803460068904205BF00220A600020AA
:1051A0001A607047D2F800C0CCF80000D2F800C0F6
:1051B000CCF8041010607047884203D01AB14368DD
:1051C00013607047002070470B68834209D02AB1F2
:1051D000586810601A680A6018467047002BF9D1A9
:1051E000FAE70023F8E700BF2DE9F041DFF830804F
:1051F0000C4E0C2706F130044546221D2146284658
:105200000C3CFFF7C1FFA642A5F10805F5D1043F0C
:105210003B1DA8F12008A6F13006EBD1BDE8F081D6
:10522000E02B00206C2C002010B403468C469AB171
:1052300001EB4101144803EB4304090101EB840134
:105240000144487A0C7AA04204BF0130087210BCB5
:105250006146184611F068BC01EB41020A4C12018C
:1052600000EB400302EB830323449C7ADA7AA242E8
:1052700001D010BC704701329A72044B01225A547B
:1052800010BC11F0A1BC00BFE82B0020642B002053
:10529000F8B506461C460D4602B322786378D21A4A
:1052A00012F003023AD1274F71004FEA450C314406
:1052B000AC44890001EB0C1101330431DBB27A18E4
:1052C000606823702146FFF76DFF1F4B01222946BE
:1052D00030465A5511F078FC0020F8BD11F05EFC04
:1052E0000028DAD02946304611F03AFC0028D4D004
:1052F00005EB450206EB4601124F6378120102EB03
:1053000081023A447100907AD27A90424FEA450C79
:105310000CD02078C01A10F00302C8D0012A03D0A4
:105320000133DBB22370D0E71046F8BD2278D21AE1
:10533000920702D00233DBB22370D4E9020398470C
:10534000CAE700BFE82B0020642B00202DE9F04FB6
:10535000DFF8649119F8003089B0002B5AD0DFF8DB
:105360005CA13C2204234FF0000B00EB400712FB32
:1053700000330324CDE904BB09F800B00AEB07179A
:10538000039302948346B8460023B96A58F8240F61
:10539000079307AAFFF710FF044607AAB4B1079DB9
:1053A0002E786978761A06F00306012E35D02B7810
:1053B000591A01F003010129DBB23DD1D7E90901F6
:1053C000FFF7FAFE044607AA002CE8D197F82E3022
:1053D00097F82F209A4203D087F82F3001230493A7
:1053E00097F82C3097F82D209A4203D087F82D306B
:1053F00001230593029B5D1EEBB2FF2B0293A7F1E5
:105400000C07C0D1049AD846DDF814B012B1BBF134
:10541000000F45D009B0BDE8F08F01396970079BD6
:10542000D3E902039847079D2A786978D3B2521AC4
:1054300002F00302012A21D0B86A019300224146FA
:10544000FFF7C2FE6C60019B6A786B702B789B1A29
:1054500003F00303012B08D0D7E9090107AAFFF7DE
:10546000ABFE012E044698D10EE0039B6A702946DC
:1054700020460AEB0302FFF795FEEDE7D7E90901A5
:1054800007AAFFF799FE0446029B8BB101235946F8
:10549000584609F80B3011F097FB09B0BDE8F08FC2
:1054A0005A464146404609B0BDE8F04F11F03CBBBA
:1054B000002C8BD0EAE700BF642B0020E82B0020F3
:1054C0004B1EDBB271B1411E00EB030C002011F842
:1054D000013F23B15A1E01301340C0B2FAD16145D9
:1054E000F5D17047084670472DE9F04F074683B065
:1054F00003260125042138460EF034F8D7F800C001
:1055000000204FEADC741F234FF0010E83468246D1
:1055100008E01C2B40F2808119294BD04FF0010E7E
:1055200008461446013BDBB2FF2B4AD02CFA03F2AB
:1055300002F0010294420CD0411C0E2BC9B271D969
:10554000002AE6D01C2B40F26481192932D09646FD
:10555000E6E70EF10108072B5FFA88F810D9B8F1D9
:10556000060F00F24B81002A40F03981B8F1060F96
:1055700000F006811C2B40F2FB800146C646CFE7B7
:10558000002A40F00281B8F1060F40F2EC804FF0A3
:10559000010E0EFA03F20BF1010B01304CEA020C82
:1055A0005FFA8BFBC1B2D1467246CA4500F09180CA
:1055B0001929B5D1013305FA03F34AB35B420CEA6A
:1055C000030CA14B8CEA0303019301A802AC002257
:1055D00010F8013B23B1591E01320B40D2B2FAD16F
:1055E000A042F5D1012A09D91FFA8CF3B3EB1C4F65
:1055F00012D15FFA8CF3B3EB1C6F0DD1013E16F0A4
:10560000FF067FF477AF6FF00D0003B0BDE8F08FB9
:10561000013B4CEA030CD4E70020C7F800C003B0FC
:10562000BDE8F08F0AF10109072B5FFA89F900F252
:105630009180002A73D1052B5FD914464FF00108E1
:10564000012902D02246C6460DE0CCB105FA03F28C
:10565000072B2CEA020C88BF002221D9A0421AD0C5
:1056600001460E2BA1D91929A4D0B9F10C0FA1D054
:10567000CA4655E7B8F1060F4ED009B101294BD102
:1056800005FA03F2072B4CEA020C1AD90C46A04289
:105690004FF00102E4D1611CC9B24FF0010EE0E706
:1056A0000BF1FF3BA0425FFA8BFB20D00022CA45E2
:1056B00017D0014634E74FF0010801292CD14CF0F6
:1056C000200C0BF1010B88425FFA8BFB06D0012204
:1056D000EDE709F101095FFA89F9C4E704460122FF
:1056E000D9E709F101095FFA89F90146BDE70130FF
:1056F000C1B200224FF0010E57E7BBF1000F19D0E5
:10570000052BD8D0BBF1010F1AD0042B4FF00108A4
:105710000DD1E1B101291AD0C6460022A3E70BF151
:10572000010B5FFA8BFB0124A04689E7D146BBF150
:10573000020F9FD101229A404CEA020CC1E7D146E8
:105740004FF0010B0BFA03F24CEA020CB9E74CF0F4
:10575000100CB6E7002AE6D14FF001081C2B3FF4ED
:1057600072AF14466CE7052B1FD9B8F1060F07D0AE
:105770000146D146002883D00022EFE78B4634D182
:10578000014622464FF0060ECAE60BF10101B8F1C0
:10579000060FC9B2F2D9964601229A4001302CEA8E
:1057A000020CC1B2D1460022FFE6BBF1000F09D1C5
:1057B0004FF0010B0BFA03F24CEA020C0446D146FF
:1057C0005A4668E7052B31D0BBF1010F0146B6D030
:1057D000042BABD1B8F1060F0CD0D14699E7B8F144
:1057E000060FCDD01C2B3FF6C8AE30B30146D146D4
:1057F0000122B3E72246C646D14634E74FF0010EF8
:105800000EFA03F162B94CEA010C04467246D14625
:1058100041E79046D146A1E7D1464FF001089DE708
:105820002CEA010C0446D146002234E7B8F1060FF9
:10583000A6D028B10146D1463FE70446D14605E748
:10584000D14600213BE700BFD6BE898E30B5037E2E
:105850000568FF2B14D003EB43028B4205EB0212C9
:1058600027D04FF0000C01E099420BD09E461378F0
:105870009468FF2B03EB4302A44405EB0212F3D11F
:10588000002030BD714517D00FFA8EFE1378906856
:105890000EEB4E0E4FEA0E1EFF2B05F80E3006D013
:1058A00003EB430305EB03139A6802449A606044D8
:1058B00030BD9E464FF0000C13780376E4E700BF3E
:1058C000A2EB010C1CF4000F10B4836844690AD1E8
:1058D0002CF07F4C6344A3420DD8E41A00234461AA
:1058E000836010BC7047891A21F07F418B4208D930
:1058F0005B1AA342F1D91B1B00244461836010BCD6
:1059000070470C44E41AE9E72DE9F843284DBDF847
:105910002C7004464FF02C0E0EFB045E084604EB80
:10592000840104EB4104DEF8041001EBC00605EB32
:105930008405F47811F83080717804F1010C5FFA75
:105940008CFCE04598BF4FF0000C61452DD071688C
:1059500004EB44044FEA041901EB04144FF004086B
:1059600001F809806360089BA360099BE3600A9BC0
:1059700023610C9BA361119B63620D9BE3610E9BF2
:1059800023620F9BA362109BE36202236270A782D3
:10599000A37086F803C0DEE9083698472B464146D7
:1059A0000022B047A078BDE8F8830120BDE8F88365
:1059B000A82C00202DE9F04F0346407AD3E900459A
:1059C00087B0002800F0FC80421ED2B205EBC20274
:1059D0009A468B46039205952346039A516856785A
:1059E0000491BBF1FF0F66D00BEB4B044FEA041898
:1059F000CDF804B013F808B003EB041400254FF001
:105A0000FF0C84F800C0DAF800709AF8182007EB51
:105A100008096245D9F8081018BF02960ED1C9E0EE
:105A2000091A06D1B9F81E80BEF81EE0F04500F252
:105A3000B580B85DFF2894466DD0024602EB420661
:105A400007EB061E3601DEF808008842E8D9029E00
:105A5000C9F80810BCF1FF0F89F8002064D00FFAD4
:105A60008CFC0CEB4C0C4FEA0C1C019807F80C005A
:105A7000FF2A06D002EB420207EB0217BA68521A5D
:105A8000BA60A27801326270002DAAD0AA6A4FF0E3
:105A900000012970A97022B1E96A019300209047A2
:105AA000019B6268002A9CD1AA6A2262EA6A626249
:105AB000BBF1FF0F98D1039A049F9278994606EBA9
:105AC0004601701CB2424FEA011CC6B207EB011539
:105AD00067D0039B17F80C101878B04208BF002657
